:030000000200807B
:0C008000787FE4F6D8FD758107020003CC
:0600540012005A7580FD48
:10005A00E4FDFCC3ED9FEE6480F8EC6480985015D3
:10006A00E4FBFA0BBB00010ABA03F8BBE8F50DBDC5
:05007A0000010C80DE16
:01007F00225E
:100003007F647E0012005A7580FE1200547580FBD7
:1000130012005A7580F712005A7580EF12005A7554
:1000230080DF12005A7580BF12005A75807F12005C
:100033005A7580BF12005A7580DF12005A7580EF1F
:1000430012005A7580F712005A7580FB1200548013
:01005300AFFD
:00000001FF
